:400000000080002011000000A5000000A500000008B5044B1A6803F53F5302331A6000F043F800BFFA46004010B5054C237833B9044B13B10448AFF300800123237010BDF2
:400040001081FF1F00000000DC060000084B10B51BB108480849AFF300800848036803B910BD074B002BFBD0BDE81040184700BF00000000DC0600001481FF1F0881FF1F6D
:400080000000000008B562B600F09EF900F0CAF900F086FA00F0CCFA014800F09BFAFEE7E0060000FEE700BF08B5104E104D16E029686B68AC68002204E051F8040B43F84F
:4000C000040B0432A242F8D1E868002203E0002143F8041B04328242F9D11035013E002EE6D100F0C1FAFFF7CDFFFEE7010000003C07000008B5124A124B1A60124A1368B4
:4001000043F40073136000230AE0032B03D80F4A52F8231000E00E490E4A42F8231001332F2BF2D90C4B1A780C4B1A70094A0C4B1A6000F0B5F800220A4B1A6008BD00BF61
:400140000004FA050CED00E014ED00E000000000A50000000080FF1FBC7600400481FF1F08ED00E00081FF1FFEE700BFF0B40022174611E050F82760F3B226F0FF0608E0C7
:4001800001EB420511F812406D78A5550132013BDBB2002BF4D10137182FEBD9F0BC7047064B1B78DBB203F00701054A11701B09013213704422034B1A707047CF0100491C
:4001C0006E5800407658004008B50A46002100F07CFA08BD38B51722254B1A801823254A1370192502321580023213700222224B1A7008224FF040231A70032103F5007377
:4002000019701E4B1B78DBB21D490B701D4B1A8041F25122023B1A8000240CE01A4B1B7803F0010343EA440404F003044FF4F07000F076F9013D0DB1032CEFD115B90320FF
:40024000FFF792FF114B4FF480721A8007221A7000220F490A704820023108701A700222033B1A700B4A137843F00303137038BD8040004082400040004300400801004934
:40028000A146004022420040254200400440004006400040A243004008B500F00BFA08BD38B572B62A4A137843F00403137000240CE0284963001A1952000A4423445B00DC
:4002C000C8589188FFF780FF0134E4B2072CF0D94FF090402049FFF749FF204A137843F0020313701032137843F0020313701C4C237843F040032370A2F58632513A13782A
:4003000043F010031370174817490A22FFF7C4FF164817490822FFF7BFFFC422154B1A70154A137843F008031370144D61232B70FFF750FF81232B700122114B1A70FFF736
:400340002FFF104821460E22FFF7A6FF38BD00BFE8460040E80600006400004803500140A0430040C0510040B806004832510040C4060048DB1601402243004000480040C7
:4003800004000840B0430040024B187800F00F00704700BF67640040014B1870704700BF8764004008B50F20FFF7F6FFFFF7ECFF00F0BEF8034A137843F01003137000F0FD
:4003C000BBF808BD9764004008B500F09BF84FF4004000F049F8044B1B7813B90122024B1A70FFF7DFFF08BD2C81FF1F704700BF014B1B681864704708ED00E04001C0B24A
:40040000014B1870704700BF00E400E00122014B1A60704700E100E00122014B1A60704780E100E008B5FFF7F7FF0448FFF7E0FF0720FFF7E3FFFFF7E9FF08BDED03000010
:40044000024A137843F080031370704777640040014B1870704700BF87650040014B1878704700BF67650040014B1880704700BF0C6A0040014B188880B270478C6A0040AB
:40048000014B1880704700BF4C6A0040014B1880704700BF6C6A004008B501E0FFF7EAFFFFF7DCFF10F0400FF8D108BD08B5134B1A7802F0F8021A701A7802F0FC021A7022
:4004C000FFF7EAFF4FF40040FFF7DAFF4FF40040FFF7CAFF0020FFF7BBFFFFF7BFFF4FF40040FFF7D3FF00F023F8054A137843F01003137000F020F808BD00BF7764004065
:400500009765004008B5054B1B7823B9FFF7CEFF0122024B1A70FFF793FF08BD2D81FF1F0230800803D000BF01380046FCD17047EFF3108072B6704780F31088704700BF0C
:400540007222084B1A70202201331A700622A3F263131A70472210331A70002203F24D131A7070478965004010B5FFF7E1FF04460A4A137843F0200313700132137843F0A3
:4005800010031370063A137843F01003137000F05DF82046FFF7D0FF10BD00BF9965004008B5054B1B7823B9FFF7CAFF0122024B1A70FFF7D9FF08BD2E81FF1F034B1B7861
:4005C00013F0040FFAD1024B18707047646500404465004038B5074B1B782BB938BDFFF7EDFF0134A4B201E005460024285D0028F5D138BD2E81FF1F704700BF014B1B68BA
:400600005864704708ED00E04001C0B2014B1870704700BF01E400E00222014B1A60704700E100E00222014B1A60704780E100E008B5FFF7F7FF0448FFF7E0FF0720FFF785
:40064000E3FFFFF7E9FF08BDF9050000054A137843F0020313701032137843F002031370704700BFA24300400E4B70B51E460E4C0025E41AA410A54204D056F825309847EF
:400680000135F8E700F048F8084B094C1E46E41AA4100025A54204D056F8253098470135F8E770BD2407000024070000240700002C07000010B5431E0A44914204D011F8BB
:4006C000014B03F8014FF8E710BD03460244934202D003F8011BFAE7704700000000000048656C6C6F0D0A00005100403000405100403000F0510040100000000140001023
:4007000000140140000800400140000A004C01400002005001402000F8B500BFF8BC08BC9E4670474D000000F5000000F8B500BFF8BC08BC9E4670472900000050070000D1
:400740000881FF1F080000002000000000000000000000000000000000000000000000000000000000000000000000000000000000000000000000000000000000000000AA
:400780000000000000000000000000000000000000000000000000000000000000000000000000000000000000000000000000000000000000000000000000000000000039
:4007C00000000000000000000000000000000000000000000000000000000000000000000000000000000000000000000000000000000000000000000000000000000000F9
:4008000000000000000000000000000000000000000000000000000000000000000000000000000000000000000000000000000000000000000000000000000000000000B8
:400840000000000000000000000000000000000000000000000000000000000000000000000000000000000000000000000000000000000000000000000000000000000078
:020000040003F7
:0200000480007A
:400000000252004001640040046500400203014001050140520601403807014002090140010B0140020D0140521401404E1501405C16014054170140471801403919014072
:40004000591A0140491B014003400140054101400148014006490140094D0140055001400151014061806440870F840F876F89728A388080E6409C8000CC02120480061F16
:40008000170118081AF1207728CC2A212CBB2E442F02330134F03502360F580459045F01820483208516870889068A078B018D208E209004910893109610972198019902F4
:4000C0009A029B049D089F10A007A103A505A608A702A801A907AA02AC07AD08AF10B010B120B307B40FB518B620BB20BF01C001C604C9FFCA07CBFFCC40CD20CEF0CF0534
:40010000D008D280D40FD604D804D904DA04DB04DD01DF01E040E1A8E240E320000101A0040509080A400B040D20100111111222144115111608188019201A021C011F90DB
:400140002004210A230425042704284029802A082B042E882F10308031283201370438863A10420248105280534058095AA060807001838487409C80C03BC24EC4DFCA1FA1
:40018000CC4FCE0FD008D60FD801E0088640A740A7408F40E6400010017304100594060C0760099E0A030B600C1C0E02100C121115FD1702182019301BC91C20202021CF04
:4001C0002330241428092A102B0F321F35FF362038803E403F104026410145CB460E480749FF4AFF4BFF4EF04F44500C5401580459045A045B045C015D115F0166C06A4046
:400200006B028008810C83038720910F940599059B0A9E08A003A310A406A50AA705A903AB0CAC06AD07B007B110B208B30FB520B802BE04D804D904DF0100100281032035
:400240000480074108020B060C800D0810A011201501162218101B401D041F01222024082508274029202A022B802C802F15313835103602380439013A203B2A3E023F0453
:4002800040024320482049014A08504058405A085B1186808C108D098E028F1090049208932494889501984299209A019D059E80A080A130A288A3A0A622A740A880A910C5
:4002C000C01FC2ABC4BECAF5CCA6CEC7D00CD204D60FEA01EE01040105020705110213041502170419041A011B023506360137013B203E404045410649FF4AFF4BFF4DA019
:400300004F015018580459045A045F016040628064406540668068406A806C406D206E8082098401850189018D08930197019906A004A301A404A904AA02AB02AF06B00445
:40034000B101B201B308B408B504B602B702B802BE04BF55C045C106C532C6C4C70EC81FC9FFCAFFCBFFCDAFCE07CF01D018D40FD804D904DA04DB04DF05E040E280E44097
:40038000E540E680E840EA80EC40ED20EE8000200248031004080F04109413041440150219901B0A1E0121012254252026102701288029202A012B02311132083310361041
:4003C0003705388039143D0841024502488049204B444D204FC051085250581059045A015B4061086210790183488402851487208E0290049320950196A0980499209B047E
:400400009D809E82A010A106A280A380A520A622A920AA40ACCCAE12B010C02CC240C40ECA0DCCE7CE4ED081D23CD60FD806DE01E010E60AEA08070109040B0814021D1007
:400440001F02251A291A2E012F0130023106331835013601390A3E013F14580459045C105F01811084038518881F89088A208C3F8F409002910495BF9623981C9A239B048A
:400480009C339D3C9E0C9F82A008A340A404A51CA7A1A80CAB23AC01ADA7AF18B010B138B31FB42CB580B60FB740B920BAA0BB08BE01BF40D602D713D804D904DB04DC11FC
:4004C000DD10DF01012003210A990F2010821328140219A21A011C801F40204021802204230424042607281029802A012B082F1530423218341035203620374038683A0240
:400500003F1459026954709472027328871488408A048C028E04931097809A40A740AF40B310C007C22FC48FCA7FCC1FCE6FD601E010E240EC8005030603080309030C807A
:400540001012110112441306160318071A381C031D021F012203249C289C2C092E4430033280341C3504366037033B083E40405341064204440145E047C0482249FF4AFF15
:400580004BFF4C624DA04EF04F41500C54185604580459045A045B045C115D115F016640670269106A306B106D106E106F1280168221841886258B03930C962998189A23C3
:4005C0009D0C9E069F03A202A418A501A620A70EA901AB06AF08B10FB23CB407BA28BB02D804D904DC11DF0101400228050407400A950E0A0F101042111416E018011902B9
:400600001A141B281D041E081F142258232027402E802F14300232403601374039143F104041421049804A084B025201590260046180638088028B218E208F10904491547F
:400640009201931096B0972A984099809A409E019F41A180A221A402A608A778AA02AB40B040C037C2EFC43FCA70CC99CE26D00BD20CD601D80DE010E44033403580CC302A
:4006800083408D809D809F40E6808F400340078087809F40C030E040108071088880A108B108C408DC01E601EC0400030A0310031A031C03000F00008000408080008000D8
:4006C00000000000030000000000000000000000000000000000000000000000000000000000000000000000000000000000000000000000000000000000000000000000F7
:4007000000000000000000000000000000000000000000000000000000000000000000000000000000000000000000000000000000000000000000000000000000000000B9
:400740000000000000000000000000000000000000000000000000000000000000000000000000000000000000000000000000000000000000000000000000000000000079
:400780000000000000000000000000000000000000000000000000000000000000000000000000000000000000000000000000000000000000000000000000000000000039
:4007C00000000000000000000000000000000000000000000000000000000000000000000000000000000000000000000000000000000000000000000000000000000000F9
:0200000490006A
:0400000000004005B7
:0200000490105A
:04000000BC90ACAF55
:0200000490303A
:020000009A5014
:0200000490402A
:4000000000000000000000000000000000000000000000000000000000000000000000000000000000000000000000000000000000000000000000000000000000000000C0
:400040000000000000000000000000000000000000000000000000000000000000000000000000000000000000000000000000000000000000000000000000000000000080
:400080000000000000000000000000000000000000000000000000000000000000000000000000000000000000000000000000000000000000000000000000000000000040
:4000C0000000000000000000000000000000000000000000000000000000000000000000000000000000000000000000000000000000000000000000000000000000000000
:0200000490501A
:0C00000000012E16106900012E1AAAB98A
:00000001FF