:4000000000800020110000003D0100003D01000008B5044B1A6803F53F5302331A6000F08FF800BFFA46004010B5054C237833B9044B13B10448AFF300800123237010BD74
:400040002881FF1F00000000080D0000084B10B51BB108480849AFF300800848036803B910BD074B002BFBD0BDE81040184700BF00000000080D00002C81FF1F0881FF1FD7
:400080000000000008B5094B1B7813F0FF0F03D10122064B1A7002E00022044B1A70C82000F0ACFD00F092FD08BD00BF4481FF1F10B562B61D4800F07BFD012000F0E0FAE0
:4000C000012000F09BFD002000F0DAFA00F028FB00F0C6FA4FF47A7000F090FD0020014600F0FCF9002405E0114B185D00F01CFA0134E4B2072CF7D90120002100F0EEF9F3
:400100000C4800F04DFA742000F064FA252000F017FA094B1B7813F0FF0F03D1042000F00FFAF6E7052000F00BFAF2E7850000000C81FF1F0C0D00004481FF1FFEE700BF83
:4001400008B5104E104D16E029686B68AC68002204E051F8040B43F8040B0432A242F8D1E868002203E0002143F8041B04328242F9D11035013E002EE6D100F08BFDFFF7A3
:4001800097FFFEE7010000000C0E000008B5124A124B1A60124A136843F40073136000230AE0032B03D80F4A52F8231000E00E490E4A42F8231001332F2BF2D90C4B1A789B
:4001C0000C4B1A70094A0C4B1A6000F0AFF800220A4B1A6008BD00BF0004FA050CED00E014ED00E0000000003D0100000080FF1FBC7600400481FF1F08ED00E00081FF1FCC
:40020000FEE700BFF0B40022174611E050F82760F3B226F0FF0608E001EB420511F812406D78A5550132013BDBB2002BF4D10137102FEBD9F0BC7047064B1B78DBB203F034
:400240000701054A11701B09013213704422034B1A707047CF0100496E5800407658004008B50A46002100F046FD08BD38B50E22244B1A80182202331A70022203F27E23AB
:400280001A7008224FF040231A70032103F5007319701D4B1B78DBB21C490B701C4B1A8041F25122023B1A80002419250CE0194B1B7803F0010343EA440404F003044FF471
:4002C000F07000F089FC013D0DB1032CEFD115B90320FFF795FF104B4FF480721A8007221A7000220D490A704820023108701A700222033B1A700A4A137843F001031370D2
:4003000038BD00BF8040004008010049A146004022420040254200400440004006400040A243004008B500F0DBFC08BD38B572B6354A137843F00403137000240CE0334965
:4003400063001A1952000A4423445B00C8589188FFF786FF0134E4B2082CF0D900240BE02A49A3001A1952000A44906BD16B8022FFF7D8FF0134E4B2002CF1D04FF09040A4
:400380002349FFF73FFF234A137843F0020313701032137843F0020313701F4C237843F040032370A2F58632513A137843F0100313701A481A490A22FFF7B4FF19481A49C7
:4003C0000A22FFF7AFFF194819490A22FFF7AAFF184819490822FFF7A5FF184A137843F008031370164D61232B70FFF73FFF81232B700122134B1A70FFF71EFF1248214697
:400400000E22FFF78FFF38BDE8460040180D00004400004803500140A04300400051004020050048C05100402C050048105100403805004832510040440500482243004056
:400440000048004004000840B0430040034A1378D118087101331370704700BF4881FF1F012309E000EB40021A440849895C084A1A4411710133DBB200EB400203498A5C07
:400480009A42EFD2013B034A137070475C0D00004781FF1F4881FF1F08B5084B084A1078191D1A78002300F0E1FA00F04DFB10F0020FFAD00022014B1A7008BD4881FF1F4F
:4004C0001481FF1F08B5044B00221A71587102221A70FFF7E1FF08BD4881FF1F38B505460C460320FFF7BCFF032D19D8DFE805F002070D1384F08000FFF7A8FF10E0A4F11D
:400500004000C0B2FFF7A2FF0AE0A4F16C00C0B2FFF79CFF04E0A4F12C00C0B2FFF796FFFFF7BAFF38BD00BF10B504460020FFF797FF2046FFF78AFFFFF7AEFF10BD00BFB0
:40054000002320E003EB430211490A449278824217D110B504461846FFF782FFFFF79CFF601E0D2812D8DFE800F0070711111111110711111111110740F2DC5000F054FB9B
:4005800010BD0133DBB2122BDCD9704710BD00BF5C0D000008B50C20FFF7D2FF08BD00BF70B5064605780020FFF75AFF01240CE0072D03D82846FFF749FF03E085F08000DA
:4005C000FFF744FF355D0134E4B2002DF0D1FFF763FF70BD4008014B187070471481FF1F38B505464020FFF7ABFF0020FFF738FF002404E0285DFFF729FF0134E4B23F2C06
:40060000F8D9FFF749FF00200146FFF767FF38BD08B53520FFF756FF0220FFF753FF0420FFF750FF0820FFF74DFFA020FFF74AFF3420FFF747FF2420FFF782FF0E20FFF7EB
:400640007FFF0620FFF77CFF0C20FFF779FF0120FFF776FF0148FFF7C3FF08BDA80D000008B5064B93F804312BB9FFF7D1FF0122024B83F80421FFF78DFF08BD4881FF1F0E
:40068000044A137803F0DF03400100F020001843107070473051004038B50024134B1C70012513331D7000F09FFA114A137843F01003137000F09CFA0F220E4B1A700822F8
:4006C00010331A700C4B1D602046072100F0CAFA20460A4900F0B2FA1022094B1A70094B1C70094B1C70094B1C7038BD70640040936400402564004080E100E04907000078
:400700005182FF1F5982FF1F6182FF1F5B82FF1F024A137843F00203137070477064004008B5074B1B7823B9FFF7B6FF0122044B1A70FFF7EDFF0122024B1A6008BD00BF01
:400740005082FF1F00E100E038B5AB4B1C78E4B2AA4B1B7813F0400F00F0788114F0010F00F04081A54B1B78453B052B00F23781DFE813F006009200350135010600F8008A
:4007800004F0DF0504F00A04082C50D19B4B1B78DBB2452B3DD19A4B1B7813F0FF0F16D0984B1B681B78DBB2974A13700622974B1A70FF22593B1A70002240331A70012218
:4007C000934B1A7046228D4B1A702C460AE1914B1B7813F0020F0CD08F4A137843F00A0313706022854B1A7001228C4B1A602C46F8E08B4A137843F0200313705222834BCF
:400800001A70FF22593B1A70002240331A702C46E8E002227D4B1A70FF22593B1A70002240331A704A22754B1A702C46DAE00A2C2DD1794A137843F0A0031370754B1B78B2
:4008400013F0020F13D06D4B1B7813F0080F01D0092300E00A23704A11780B4313706022664B1A7001226D4B1A602C46BAE06C4A137843F0200313705222644B1A70FF22F8
:40088000593B1A70002240331A702C46AAE0002000F0B2F92C46A5E014F0020F3DD15C4B1B78574A1278DBB2934216D2584A1378DBB254490968CB5CDBB253490B700621C1
:4008C000524B1970FF21593B197000214033197013780133DBB2137084E04E4B1B7813F0020F0BD04C4A137843F00A0313706022424B1A700122494B1A6073E0484A13780C
:4009000043F0200313705222404B1A70FF22593B1A70002240331A7064E03E4B1B7813F0020F0BD03C4A137843F09A0313706022324B1A700122394B1A6053E0384A13785A
:4009400043F0200313705222304B1A70FF22593B1A70002240331A702F4A137843F0900313703FE02F4A1378DBB22F49086826490978C9B2C15413780133DBB21370137808
:400980002A4A1278DBB2934209D202221F4B1A70FF22593B1A70002240331A7022E01D4B1B7813F0020F0BD01B4A137843F0090313706022114B1A700122184B1A6011E08F
:4009C000174A137843F02003137012220F4B1A70FF22593B1A70002240331A7002E0002000F00AF914F0200F38D0044B1B7813F0080F1DD001231CE0636400405182FF1F8B
:400A00005882FF1F5C82FF1F07640040706400405B82FF1F6082FF1F5982FF1F80E100E0836400406182FF1F5482FF1F5A82FF1F02230B4A11780B4313700A4A137803F012
:400A4000DF0313701022084B1A7038BD064B1B7813F0100F02D11022034B1A7038BD00BF5982FF1F836400405182FF1F00294ED070B40C4629490978C9B2102906D12849B9
:400A8000097811F0100F10D1002111E023490978C9B260290BD1012522490D60224D297801F0F7012970002102E0012100E0022181BB4526194D2E7000261C4D2E701C4DDC
:400AC0002A701C4A14601C4A1370174C227802F0FD0222704200D2B21848027013F0010F08D03222164B1A70FF22593B1A7040331E7008E08222124B1A70FF22593B1A7065
:400B0000002240331A7001220E4B1A6002E0022108467047084670BC704700BF5182FF1F6364004080E200E05982FF1F5B82FF1F5882FF1F5C82FF1F6082FF1F07640040D9
:400B40007064004000E100E00122084B1A60084B1878C0B2074B1B7813F0400F01D040F004000122044B1A60704700BF80E100E05982FF1F5182FF1F00E100E0014B1B6802
:400B80005865704708ED00E04001C0B2014B1870704700BF05E400E02022014B1A60704700E100E02022014B1A60704780E100E010B50446FFF7F6FF2046FFF7DFFF07204B
:400BC000FFF7E2FFFFF7E8FF10BD00BF014B1878C0097047814500400230800803D000BF01380046FCD17047EFF3108072B6704780F31088704700BF01BE704710B50446AD
:400C000005E0084B1868FFF7E7FFA4F50044B4F5004FF6D8034B586800FB04F0FFF7DCFF10BD00BF1881FF1F08B5034B1B7A03FB00F0FFF7D1FF08BD1881FF1F70B504462D
:400C40000E46074B1D681F2802D90020FFF7D4FF04F01F04103455F8240045F8246070BD08ED00E038B504460D46072902D90020FFF7C2FF1F2C02D90020FFF7BDFF04F057
:400C80001F0000F1604000F564406D01EDB2057038BD00BF0E4B70B51E460E4C0025E41AA410A54204D056F8253098470135F8E700F09AF8084B094C1E46E41AA4100025EB
:400CC000A54204D056F8253098470135F8E770BDF40D0000F40D0000F40D0000FC0D000010B5431E0A44914204D011F8014B03F8014FF8E710BD03460244934202D003F8D1
:400D0000011BFAE77047000000000000437970726573732100000000205100401000405100403000F0510040100000000140800600070140000900140140000800400140AC
:400D4000000A004C01400002005001402000000080060140A00400488000000001400002000C02000801008002000202000302001002001402000E02000D02000F020001B8
:400D800002004002002402000602000402002502000502000400000030313233343536373839414243444546000E0808080E0000000A0A0404040000000E0A0E080800005D
:400DC000000E0A0C0A0A0000000E080C080E0000000E080E020E0000000E080E020E00000004040400040000F8B500BFF8BC08BC9E4670474D0000008D010000F8B500BF45
:400E0000F8BC08BC9E46704729000000200E00000881FF1F2000000040010000000000000000000000010203040506073A0000000000E02EC05D00001800000000366E0102
:400E40000000000000000000000000000000000000000000000000000000000000000000000000000000000000000000000000000000000000000000000000000000000072
:400E80000000000000000000000000000000000000000000000000000000000000000000000000000000000000000000000000000000000000000000000000000000000032
:400EC00000000000000000000000000000000000000000000000000000000000000000000000000000000000000000000000000000000000000000000000000000000000F2
:400F000000000000000000000000000000000000000000000000000000000000000000000000000000000000000000000000000000000000000000000000000000000000B1
:020000040003F7
:0200000480007A
:400000000145004005520040036400404C0001403001014051020140440301405E040140430501401506014046070140024001400741014008420140034301400350014019
:40004000015101400F02010204020C8061086408250F27043508000202040301041E050208100A0A0B020DA50F4A100C1104160417B5194D1A201B921DCC1F132002220496
:400080002304240225FF2608280129A92B542C0A2D1A2E142F60303E320135FF3F1052F6580459045B045F01800182328301840186048C018D2A8E068F54910E933095403B
:4000C0009613971399339B0C9C129D469E019FA9A21BA5FFA980AB56AE13B007B208B410B620B7FFBA02BE10D804D904DF0100020108030404400509080609200E12115076
:400100001280130815801680188019081C441E12212026802702280229282A0A2D082F0830013280332C340635203680388239403B143C023D406914702172027310842105
:400140008540C0BEC2AEC49FCA6FCCFFCE9F027806780A130E4310021201140315011620170218011A061C781E80200322402478260328012A042D012E0B2F06310332786B
:400180003407368037043A203E04580459045F018001820E8310848185718628870289718B088E40900792109501970E98809A109B409D25A006A104A201A301A407A52553
:4001C000A610A803A905AA34AB20AC02AD04AE05AF21B00FB30FB470B540B680B730B880BA22BB08D420D604D804D904DB04DF010080010A048005240685070808120C0495
:400200000DC00E080FA010041201130A141215101648174619021BB01D101E081F482128224023052580260128042A452F0231283340350439183A803B81580159105A8867
:4002400060846140848089028A049084910493109580970499089A0A9B029C069D219E809F0CA140A401A720C0FDC2FAC4FFCA1FCC4ECE07D60FD80D0001021E0302040A76
:400280000610070809010C1C0D010E021012110D12081418160617FF1806195D1BA21C011D3D1FC22002210423E0241F25E2280429402B1D2C022D922E182F6031FF361FB0
:4002C00038803F01580459045F0180108201843F8701881089128A028E08900F9504962097089A149D049F08A218A404A510A608A912AA40B040B10EB23FB301B510B7027B
:40030000B808B9A2BF41C043C620C750C828C9FFCAFFCBFFCC42CDA0CE70D008D110D804D904DA04DF01E148E240E348E480E548E680E748018003A0050806010748080142
:400340000A220B040D020E100F08101811011201164017141A021D05208026022716281529082A412B042D082E102F083002321033443580374839413A023B143DC83F20B3
:4003800045084702480355025710910493149508980499089A439D459F4CA140A201A3A8A441A740A904AC01AD08AF02C0FDC27FC47FCA6FCC5FCE6FD0C000010C010D01F5
:4003C0001101120115011C021F01200121012401280129012F023103320338083E04580459045F0101080201034506010740085409400B840C020E02100211041240131004
:4004000014041640170819401B021D08210422102308274028542AC02C042E022F023002321033443508374139443A013B103E80410443104A02500A814887489104931441
:4004400095089620980499089A439B149D409F48A140A203A40AA508A904AB40B201C09FC29FC47FCABFCCDFCE1FD006D208EA203010CC1006205A8084109C10C020D48002
:40048000E64007105310AA40AE20C020D420E810EE80AB10B310E820000108010A010003854278097F00000140010700A21F0500BA0304208890070B03400014014F000084
:4004C0009001070001030000014800020340000B7F0000E0001F8000800800000000410435000000020000DB30FF7FFF42A070000C000000000000000404040000000001D2
:400500000009400930090000000000000000000000000000000000000000000000000000020000000200020000000000080000000800080000000000800000800000000012
:40054000000000000020200000000000000000000000000000000000000000000000000000000000000000000000000000000000000000000000000000000000000000003B
:40058000000000000000000000000000000000000000000000000000000000000000000000000000000000000000000000000000000000000000000000000000000000003B
:4005C00000000000000000000000000000000000000000000000000000000000000000000000000000000000000000000000000000000000000000000000000000000000FB
:4006000000000000000000000000000000000000000000000000000000000000000000000000000000000000000000000000000000000000000000000000000000000000BA
:40064000000000000000000000000000000000000000000000000000000000000000000000000000000000000000000000000000000000000000000000000000000000007A
:0200000490006A
:0400000000004005B7
:0200000490105A
:04000000BC90ACAF55
:0200000490303A
:020000003323A8
:0200000490402A
:4000000000000000000000000000000000000000000000000000000000000000000000000000000000000000000000000000000000000000000000000000000000000000C0
:400040000000000000000000000000000000000000000000000000000000000000000000000000000000000000000000000000000000000000000000000000000000000080
:400080000000000000000000000000000000000000000000000000000000000000000000000000000000000000000000000000000000000000000000000000000000000040
:4000C0000000000000000000000000000000000000000000000000000000000000000000000000000000000000000000000000000000000000000000000000000000000000
:0200000490501A
:0C00000000012E16106900012E1C438C1C
:00000001FF